:100000000C942A000C9434000C9434000C943400AA
:100010000C9434000C9434000C9434000C94340090
:100020000C9434000C9434000C9434000C94340080
:100030000C9434000C9434000C9434000C94340070
:100040000C9434000C9434000C9434000C94340060
:100050000C94340011241FBECFE5D4E0DEBFCDBF29
:100060000E9457000C9486000C9400008FEB84BD16
:1000700084E085BD08B600FEFDCF15BC81E088BFD9
:10008000089588EA84BD89E485BD08B600FEFDCFE9
:1000900015BC81E088BF08958DEA84BD8CE485BDE0
:1000A00008B600FEFDCF15BC81E088BF0895EF9231
:1000B000FF921F93CF93DF938FEF87BB11E0C4E1D3
:1000C000D1E08CECE82E8AE0F82E88B3812788BB3B
:1000D0000E94360080E197E2FE013197F1F7019727
:1000E000D9F788B3812788BB0E94410080E197E25D
:1000F000FE013197F1F70197D9F788B3812788BBC3
:100100000E944C00C7010197F1F7DFCFF894FFCFB1
:00000001FF
